Microchip MPLAB XC8 Compiler V1.35 ()

Linker command line:

-W-3 --edf=C:\Program Files\Microchip\xc8\v1.35\dat\en_msgs.txt -cs \
  -h+dist/default/production\Test_Image_GLCD_ST7920.X.production.sym \
  --cmf=dist/default/production\Test_Image_GLCD_ST7920.X.production.cmf -z \
  -Q18F4550 -oC:\Users\Brandy\AppData\Local\Temp\s7rc.2 \
  -Mdist/default/production/Test_Image_GLCD_ST7920.X.production.map -E1 \
  -ver=XC8 -ASTACK=060h-07ffh -pstack=STACK -ACODE=01000h-07FFFh \
  -ACONST=01000h-07FFFh -ASMALLCONST=01000h-010FFhx112 \
  -AMEDIUMCONST=01000h-07FFFh -ACOMRAM=01h-05Fh -AABS1=00h-07FFh \
  -ABIGRAM=01h-07FFh -ARAM=060h-0FFh,0100h-01FFhx7 -ABANK0=060h-0FFh \
  -ABANK1=0100h-01FFh -ABANK2=0200h-02FFh -ABANK3=0300h-03FFh \
  -ABANK4=0400h-04FFh -ABANK5=0500h-05FFh -ABANK6=0600h-06FFh \
  -ABANK7=0700h-07FFh -ASFR=0F60h-0FFFh \
  -preset_vec=01000h,intcode,intcodelo,powerup,init,end_init -pramtop=0800h \
  -psmallconst=SMALLCONST -pmediumconst=MEDIUMCONST -pconst=CONST \
  -AFARRAM=00h-00h -ACONFIG=0300000h-030000Dh -pconfig=CONFIG \
  -AIDLOC=0200000h-0200007h -pidloc=IDLOC -AEEDATA=0F00000h-0F000FFh \
  -peeprom_data=EEDATA \
  -prdata=COMRAM,nvrram=COMRAM,nvbit=COMRAM,rbss=COMRAM,rbit=COMRAM \
  -pfarbss=FARRAM,fardata=FARRAM,nvFARRAM=FARRAM \
  -pintsave_regs=BIGRAM,bigbss=BIGRAM,bigdata=BIGRAM -pbss=RAM \
  -pidata=CODE,irdata=CODE,ibigdata=CODE,ifardata=CODE -prparam=COMRAM \
  C:\Users\Brandy\AppData\Local\Temp\s7rc.obj \
  dist/default/production\Test_Image_GLCD_ST7920.X.production.obj 

Object code version is 3.11

Machine type is 18F4550

Call graph: (short form)




                Name                               Link     Load   Length Selector   Space Scale
C:\Users\Brandy\AppData\Local\Temp\s7rc.obj
                end_init                           1000     1000        4      800       0
                idloc                            200000   200000        8   200000       0
                config                           300000   300000        E   300000       0
dist/default/production\Test_Image_GLCD_ST7920.X.production.obj
                mediumconst                        7BFE     7BFE      402     3DFF       0
                text8                              7958     7958       1C     3CAC       0
                text7                              7992     7992       26     3CC9       0
                text6                              7A42     7A42       4C     3D21       0
                text5                              7A8E     7A8E       5A     3D47       0
                text4                              7AE8     7AE8       7C     3D74       0
                text3                              7974     7974       1E     3CBA       0
                text2                              79B8     79B8       2A     3CDC       0
                text1                              7A0C     7A0C       36     3D06       0
                text0                              7B64     7B64       9A     3DB2       0
                cstackCOMRAM                         11       11        5        1       1
                dataCOMRAM                            1        1       10        1       1
                cinit                              79E2     79E2       2A     3CF1       0
                idataCOMRAM                        7948     7948       10     7948       0

TOTAL           Name                               Link     Load   Length     Space
        CLASS   STACK          

        CLASS   CODE           
                end_init                           1000     1000        4         0
                text8                              7958     7958       1C         0
                text7                              7992     7992       26         0
                text6                              7A42     7A42       4C         0
                text5                              7A8E     7A8E       5A         0
                text4                              7AE8     7AE8       7C         0
                text3                              7974     7974       1E         0
                text2                              79B8     79B8       2A         0
                text1                              7A0C     7A0C       36         0
                text0                              7B64     7B64       9A         0
                cinit                              79E2     79E2       2A         0
                idataCOMRAM                        7948     7948       10         0

        CLASS   CONST          

        CLASS   SMALLCONST     

        CLASS   MEDIUMCONST    
                mediumconst                        7BFE     7BFE      402         0

        CLASS   COMRAM         
                cstackCOMRAM                         11       11        5         1
                dataCOMRAM                            1        1       10         1

        CLASS   ABS1           

        CLASS   BIGRAM         

        CLASS   RAM            

        CLASS   BANK0          

        CLASS   BANK1          

        CLASS   BANK2          

        CLASS   BANK3          

        CLASS   BANK4          

        CLASS   BANK5          

        CLASS   BANK6          

        CLASS   BANK7          

        CLASS   SFR            

        CLASS   FARRAM         

        CLASS   CONFIG         
                config                           300000   300000        E         0

        CLASS   IDLOC          
                idloc                            200000   200000        8         0

        CLASS   EEDATA         



SEGMENTS        Name                           Load    Length   Top    Selector   Space  Class

                dataCOMRAM                     000001  000015  000016         1       1  COMRAM  
                reset_vec                      001000  000004  001004       800       0  CODE    
                idataCOMRAM                    007948  000010  007958      7948       0  CODE    
                text8                          007958  00001C  007974      3CAC       0  CODE    
                text3                          007974  00001E  007992      3CBA       0  CODE    
                text7                          007992  000026  0079B8      3CC9       0  CODE    
                text2                          0079B8  00002A  0079E2      3CDC       0  CODE    
                cinit                          0079E2  00002A  007A0C      3CF1       0  CODE    
                text1                          007A0C  000036  007A42      3D06       0  CODE    
                text6                          007A42  00004C  007A8E      3D21       0  CODE    
                text5                          007A8E  00005A  007AE8      3D47       0  CODE    
                text4                          007AE8  00007C  007B64      3D74       0  CODE    
                text0                          007B64  00009A  007BFE      3DB2       0  CODE    
                mediumconst                    007BFE  000402  008000      3DFF       0  MEDIUMCO
                idloc                          200000  000008  200008    200000       0  IDLOC   
                config                         300000  00000E  30000E    300000       0  CONFIG  


UNUSED ADDRESS RANGES

        Name                Unused          Largest block    Delta
        BANK0            000060-0000FF               A0
        BANK1            000100-0001FF              100
        BANK2            000200-0002FF              100
        BANK3            000300-0003FF              100
        BANK4            000400-0004FF              100
        BANK5            000500-0005FF              100
        BANK6            000600-0006FF              100
        BANK7            000700-0007FF              100
        BIGRAM           000016-0007FF              7EA
        CODE             001004-007947             6944
        COMRAM           000016-00005F               4A
        CONST            001004-007947             6944
        EEDATA           F00000-F000FF              100
        FARRAM           000000-000000                1
        MEDIUMCONST      001004-007947             6944
        RAM              000060-0007FF              100
        SFR              000F60-000FFF               A0
        SMALLCONST       001004-007947              100
        STACK            000060-0007FF              7A0

                                  Symbol Table

Clear_Graphics@x          cstackCOMRAM 000012
Clear_Graphics@y          cstackCOMRAM 000013
Image_Graphics@image      cstackCOMRAM 000012
Image_Graphics@x          cstackCOMRAM 000014
Image_Graphics@y          cstackCOMRAM 000015
Send_Command@command      cstackCOMRAM 000011
Send_Data@data            cstackCOMRAM 000011
Write_String@Y            cstackCOMRAM 000012
Write_String@string       cstackCOMRAM 000014
_ADCON0                   (abs)        000FC2
_ADCON1                   (abs)        000FC1
_ADCON1bits               (abs)        000FC1
_Clear_Graphics           text6        007A42
_Image_Graphics           text5        007A8E
_Initialize               text4        007AE8
_LATB                     (abs)        000F8A
_LATD                     (abs)        000F8C
_LATDbits                 (abs)        000F8C
_MH                       mediumconst  007BFF
_Send_Command             text8        007958
_Send_Data                text7        007992
_Set_GraphicMode          text3        007974
_TRISB                    (abs)        000F93
_TRISD                    (abs)        000F95
_Write_String             text2        0079B8
__CFG_BOR$ON              (abs)        000000
__CFG_BORV$3              (abs)        000000
__CFG_CP0$OFF             (abs)        000000
__CFG_CP1$OFF             (abs)        000000
__CFG_CPB$OFF             (abs)        000000
__CFG_CPUDIV$OSC1_PLL2    (abs)        000000
__CFG_EBTR0$OFF           (abs)        000000
__CFG_EBTR1$OFF           (abs)        000000
__CFG_EBTRB$OFF           (abs)        000000
__CFG_FCMEN$OFF           (abs)        000000
__CFG_FOSC$HSPLL_HS       (abs)        000000
__CFG_IESO$OFF            (abs)        000000
__CFG_LPT1OSC$OFF         (abs)        000000
__CFG_LVP$OFF             (abs)        000000
__CFG_MCLRE$ON            (abs)        000000
__CFG_PBADEN$OFF          (abs)        000000
__CFG_PLLDIV$5            (abs)        000000
__CFG_PWRT$OFF            (abs)        000000
__CFG_STVREN$ON           (abs)        000000
__CFG_USBDIV$2            (abs)        000000
__CFG_VREGEN$ON           (abs)        000000
__CFG_WDT$OFF             (abs)        000000
__CFG_WDTPS$32768         (abs)        000000
__CFG_WRT0$OFF            (abs)        000000
__CFG_WRT1$OFF            (abs)        000000
__CFG_WRTB$OFF            (abs)        000000
__CFG_WRTC$OFF            (abs)        000000
__CFG_XINST$OFF           (abs)        000000
__HRAM                    (abs)        000000
__Habs1                   abs1         000000
__Hbank0                  bank0        000000
__Hbank1                  bank1        000000
__Hbank2                  bank2        000000
__Hbank3                  bank3        000000
__Hbank4                  bank4        000000
__Hbank5                  bank5        000000
__Hbank6                  bank6        000000
__Hbank7                  bank7        000000
__Hbigbss                 bigbss       000000
__Hbigdata                bigdata      000000
__Hbigram                 bigram       000000
__Hbss                    bss          000000
__Hcinit                  cinit        000000
__Hclrtext                clrtext      000000
__Hcomram                 comram       000000
__Hconfig                 config       30000E
__Hconst                  const        000000
__HcstackCOMRAM           cstackCOMRAM 000000
__Hdata                   data         000000
__HdataCOMRAM             dataCOMRAM   000000
__Heeprom_data            eeprom_data  000000
__Hend_init               end_init     001004
__Hfarbss                 farbss       000000
__Hfardata                fardata      000000
__Hibigdata               ibigdata     000000
__Hidata                  idata        000000
__HidataCOMRAM            idataCOMRAM  000000
__Hidloc                  idloc        200008
__Hifardata               ifardata     000000
__Hinit                   init         001000
__Hintcode                intcode      001000
__Hintcode_body           intcode_body 000000
__Hintcodelo              intcodelo    001000
__Hintentry               intentry     000000
__Hintret                 intret       000000
__Hintsave_regs           intsave_regs 000000
__Hirdata                 irdata       000000
__Hmediumconst            mediumconst  008000
__HnvFARRAM               nvFARRAM     000000
__Hnvbit                  nvbit        000000
__Hnvrram                 nvrram       000000
__Hparam                  rparam       000000
__Hpowerup                powerup      001000
__Hram                    ram          000000
__Hramtop                 ramtop       000800
__Hrbit                   rbit         000000
__Hrbss                   rbss         000000
__Hrdata                  rdata        000000
__Hreset_vec              reset_vec    001000
__Hrparam                 rparam       000000
__Hsfr                    sfr          000000
__Hsmallconst             smallconst   000000
__Hspace_0                (abs)        30000E
__Hspace_1                (abs)        000016
__Hspace_2                (abs)        000000
__Hstack                  stack        000000
__Hstruct                 struct       000000
__Htemp                   temp         000000
__Htext                   text         000000
__Htext0                  text0        000000
__Htext1                  text1        000000
__Htext2                  text2        000000
__Htext3                  text3        000000
__Htext4                  text4        000000
__Htext5                  text5        000000
__Htext6                  text6        000000
__Htext7                  text7        000000
__Htext8                  text8        000000
__LRAM                    (abs)        000001
__Labs1                   abs1         000000
__Lbank0                  bank0        000000
__Lbank1                  bank1        000000
__Lbank2                  bank2        000000
__Lbank3                  bank3        000000
__Lbank4                  bank4        000000
__Lbank5                  bank5        000000
__Lbank6                  bank6        000000
__Lbank7                  bank7        000000
__Lbigbss                 bigbss       000000
__Lbigdata                bigdata      000000
__Lbigram                 bigram       000000
__Lbss                    bss          000000
__Lcinit                  cinit        000000
__Lclrtext                clrtext      000000
__Lcomram                 comram       000000
__Lconfig                 config       300000
__Lconst                  const        000000
__LcstackCOMRAM           cstackCOMRAM 000000
__Ldata                   data         000000
__LdataCOMRAM             dataCOMRAM   000000
__Leeprom_data            eeprom_data  000000
__Lend_init               end_init     001000
__Lfarbss                 farbss       000000
__Lfardata                fardata      000000
__Libigdata               ibigdata     000000
__Lidata                  idata        000000
__LidataCOMRAM            idataCOMRAM  000000
__Lidloc                  idloc        200000
__Lifardata               ifardata     000000
__Linit                   init         001000
__Lintcode                intcode      001000
__Lintcode_body           intcode_body 000000
__Lintcodelo              intcodelo    001000
__Lintentry               intentry     000000
__Lintret                 intret       000000
__Lintsave_regs           intsave_regs 000000
__Lirdata                 irdata       000000
__Lmediumconst            mediumconst  007BFE
__LnvFARRAM               nvFARRAM     000000
__Lnvbit                  nvbit        000000
__Lnvrram                 nvrram       000000
__Lparam                  rparam       000000
__Lpowerup                powerup      001000
__Lram                    ram          000000
__Lramtop                 ramtop       000800
__Lrbit                   rbit         000000
__Lrbss                   rbss         000000
__Lrdata                  rdata        000000
__Lreset_vec              reset_vec    001000
__Lrparam                 rparam       000000
__Lsfr                    sfr          000000
__Lsmallconst             smallconst   000000
__Lspace_0                (abs)        000000
__Lspace_1                (abs)        000000
__Lspace_2                (abs)        000000
__Lstack                  stack        000000
__Lstruct                 struct       000000
__Ltemp                   temp         000000
__Ltext                   text         000000
__Ltext0                  text0        000000
__Ltext1                  text1        000000
__Ltext2                  text2        000000
__Ltext3                  text3        000000
__Ltext4                  text4        000000
__Ltext5                  text5        000000
__Ltext6                  text6        000000
__Ltext7                  text7        000000
__Ltext8                  text8        000000
__S0                      (abs)        30000E
__S1                      (abs)        000016
__S2                      (abs)        000000
___inthi_sp               stack        000000
___intlo_sp               stack        000000
___param_bank             (abs)        000010
___rparam_used            (abs)        000001
___sp                     stack        000000
__accesstop               (abs)        000060
__activetblptr            (abs)        000002
__end_of_Clear_Graphics   text6        007A8E
__end_of_Image_Graphics   text5        007AE8
__end_of_Initialize       text4        007B64
__end_of_MH               mediumconst  007FFF
__end_of_Send_Command     text8        007974
__end_of_Send_Data        text7        0079B8
__end_of_Set_GraphicMode  text3        007992
__end_of_Write_String     text2        0079E2
__end_of__initialization  cinit        007A02
__end_of_delay_ms         text1        007A42
__end_of_main             text0        007BFE
__initialization          cinit        0079E2
__mediumconst             mediumconst  007BFE
__pcinit                  cinit        0079E2
__pcstackCOMRAM           cstackCOMRAM 000011
__pdataCOMRAM             dataCOMRAM   000001
__pidataCOMRAM            idataCOMRAM  007948
__pmediumconst            mediumconst  007BFE
__ptext0                  text0        007B64
__ptext1                  text1        007A0C
__ptext2                  text2        0079B8
__ptext3                  text3        007974
__ptext4                  text4        007AE8
__ptext5                  text5        007A8E
__ptext6                  text6        007A42
__ptext7                  text7        007992
__ptext8                  text8        007958
__ramtop                  ramtop       000800
__size_of_Clear_Graphics  (abs)        000000
__size_of_Image_Graphics  (abs)        000000
__size_of_Initialize      (abs)        000000
__size_of_Send_Command    (abs)        000000
__size_of_Send_Data       (abs)        000000
__size_of_Set_GraphicMode (abs)        000000
__size_of_Write_String    (abs)        000000
__size_of_delay_ms        (abs)        000000
__size_of_main            (abs)        000000
__smallconst              smallconst   000000
_delay_ms                 text1        007A0C
_main                     text0        007B64
_message                  dataCOMRAM   000001
delay_ms@n                cstackCOMRAM 000011
end_of_initialization     cinit        007A02
intlevel0                 text         000000
intlevel1                 text         000000
intlevel2                 text         000000
intlevel3                 text         000000
stackhi                   (abs)        0007FF
stacklo                   (abs)        000060
start                     init         001000
start_initialization      cinit        0079E2


FUNCTION INFORMATION:

 *************** function _main *****************
 Defined at:
		line 39 in file "main.c"
 Parameters:    Size  Location     Type
		None
 Auto vars:     Size  Location     Type
		None
 Return value:  Size  Location     Type
		None               void
 Registers used:
		wreg, fsr2l, fsr2h, status,2, status,0, tblptrl, tblptrh, tblptru, cstack
 Tracked objects:
		On entry : 
		On exit  : 
		Unchanged: 
 Data sizes:     COMRAM   BANK0   BANK1   BANK2   BANK3   BANK4   BANK5   BANK6   BANK7
      Params:         0       0       0       0       0       0       0       0       0
      Locals:         0       0       0       0       0       0       0       0       0
      Temps:          0       0       0       0       0       0       0       0       0
      Totals:         0       0       0       0       0       0       0       0       0
Total ram usage:        0 bytes
 Hardware stack levels required when called:    2
 This function calls:
		_Clear_Graphics
		_Image_Graphics
		_Initialize
		_Send_Command
		_Send_Data
		_Set_GraphicMode
		_Write_String
		_delay_ms
 This function is called by:
		Startup code after reset
 This function uses a non-reentrant model


 *************** function _delay_ms *****************
 Defined at:
		line 146 in file "Alteri.h"
 Parameters:    Size  Location     Type
  n               4    0[COMRAM] long 
 Auto vars:     Size  Location     Type
		None
 Return value:  Size  Location     Type
		None               void
 Registers used:
		wreg, status,2, status,0
 Tracked objects:
		On entry : 
		On exit  : 
		Unchanged: 
 Data sizes:     COMRAM   BANK0   BANK1   BANK2   BANK3   BANK4   BANK5   BANK6   BANK7
      Params:         4       0       0       0       0       0       0       0       0
      Locals:         0       0       0       0       0       0       0       0       0
      Temps:          1       0       0       0       0       0       0       0       0
      Totals:         5       0       0       0       0       0       0       0       0
Total ram usage:        5 bytes
 Hardware stack levels used:    1
 This function calls:
		Nothing
 This function is called by:
		_main
 This function uses a non-reentrant model


 *************** function _Write_String *****************
 Defined at:
		line 176 in file "main.c"
 Parameters:    Size  Location     Type
  Y               2    1[COMRAM] unsigned int 
  string          2    3[COMRAM] PTR unsigned char 
		 -> message(16), 
 Auto vars:     Size  Location     Type
		None
 Return value:  Size  Location     Type
		None               void
 Registers used:
		wreg, fsr2l, fsr2h, status,2, status,0, cstack
 Tracked objects:
		On entry : 
		On exit  : 
		Unchanged: 
 Data sizes:     COMRAM   BANK0   BANK1   BANK2   BANK3   BANK4   BANK5   BANK6   BANK7
      Params:         4       0       0       0       0       0       0       0       0
      Locals:         0       0       0       0       0       0       0       0       0
      Temps:          0       0       0       0       0       0       0       0       0
      Totals:         4       0       0       0       0       0       0       0       0
Total ram usage:        4 bytes
 Hardware stack levels used:    1
 Hardware stack levels required when called:    1
 This function calls:
		_Send_Command
		_Send_Data
 This function is called by:
		_main
 This function uses a non-reentrant model


 *************** function _Set_GraphicMode *****************
 Defined at:
		line 117 in file "main.c"
 Parameters:    Size  Location     Type
		None
 Auto vars:     Size  Location     Type
		None
 Return value:  Size  Location     Type
		None               void
 Registers used:
		wreg, cstack
 Tracked objects:
		On entry : 
		On exit  : 
		Unchanged: 
 Data sizes:     COMRAM   BANK0   BANK1   BANK2   BANK3   BANK4   BANK5   BANK6   BANK7
      Params:         0       0       0       0       0       0       0       0       0
      Locals:         0       0       0       0       0       0       0       0       0
      Temps:          0       0       0       0       0       0       0       0       0
      Totals:         0       0       0       0       0       0       0       0       0
Total ram usage:        0 bytes
 Hardware stack levels used:    1
 Hardware stack levels required when called:    1
 This function calls:
		_Send_Command
 This function is called by:
		_main
 This function uses a non-reentrant model


 *************** function _Initialize *****************
 Defined at:
		line 73 in file "main.c"
 Parameters:    Size  Location     Type
		None
 Auto vars:     Size  Location     Type
		None
 Return value:  Size  Location     Type
		None               void
 Registers used:
		wreg, cstack
 Tracked objects:
		On entry : 
		On exit  : 
		Unchanged: 
 Data sizes:     COMRAM   BANK0   BANK1   BANK2   BANK3   BANK4   BANK5   BANK6   BANK7
      Params:         0       0       0       0       0       0       0       0       0
      Locals:         0       0       0       0       0       0       0       0       0
      Temps:          1       0       0       0       0       0       0       0       0
      Totals:         1       0       0       0       0       0       0       0       0
Total ram usage:        1 bytes
 Hardware stack levels used:    1
 Hardware stack levels required when called:    1
 This function calls:
		_Send_Command
 This function is called by:
		_main
 This function uses a non-reentrant model


 *************** function _Image_Graphics *****************
 Defined at:
		line 159 in file "main.c"
 Parameters:    Size  Location     Type
  image           2    1[COMRAM] PTR unsigned char 
		 -> MH(1024), 
 Auto vars:     Size  Location     Type
  y               1    4[COMRAM] unsigned char 
  x               1    3[COMRAM] unsigned char 
 Return value:  Size  Location     Type
		None               void
 Registers used:
		wreg, status,2, status,0, tblptrl, tblptrh, tblptru, cstack
 Tracked objects:
		On entry : 
		On exit  : 
		Unchanged: 
 Data sizes:     COMRAM   BANK0   BANK1   BANK2   BANK3   BANK4   BANK5   BANK6   BANK7
      Params:         2       0       0       0       0       0       0       0       0
      Locals:         2       0       0       0       0       0       0       0       0
      Temps:          0       0       0       0       0       0       0       0       0
      Totals:         4       0       0       0       0       0       0       0       0
Total ram usage:        4 bytes
 Hardware stack levels used:    1
 Hardware stack levels required when called:    1
 This function calls:
		_Send_Command
		_Send_Data
 This function is called by:
		_main
 This function uses a non-reentrant model


 *************** function _Clear_Graphics *****************
 Defined at:
		line 125 in file "main.c"
 Parameters:    Size  Location     Type
		None
 Auto vars:     Size  Location     Type
  y               1    2[COMRAM] unsigned char 
  x               1    1[COMRAM] unsigned char 
 Return value:  Size  Location     Type
		None               void
 Registers used:
		wreg, status,2, status,0, cstack
 Tracked objects:
		On entry : 
		On exit  : 
		Unchanged: 
 Data sizes:     COMRAM   BANK0   BANK1   BANK2   BANK3   BANK4   BANK5   BANK6   BANK7
      Params:         0       0       0       0       0       0       0       0       0
      Locals:         2       0       0       0       0       0       0       0       0
      Temps:          0       0       0       0       0       0       0       0       0
      Totals:         2       0       0       0       0       0       0       0       0
Total ram usage:        2 bytes
 Hardware stack levels used:    1
 Hardware stack levels required when called:    1
 This function calls:
		_Send_Command
		_Send_Data
 This function is called by:
		_main
 This function uses a non-reentrant model


 *************** function _Send_Data *****************
 Defined at:
		line 105 in file "main.c"
 Parameters:    Size  Location     Type
  data            1    wreg     unsigned char 
 Auto vars:     Size  Location     Type
  data            1    0[COMRAM] unsigned char 
 Return value:  Size  Location     Type
		None               void
 Registers used:
		wreg
 Tracked objects:
		On entry : 
		On exit  : 
		Unchanged: 
 Data sizes:     COMRAM   BANK0   BANK1   BANK2   BANK3   BANK4   BANK5   BANK6   BANK7
      Params:         0       0       0       0       0       0       0       0       0
      Locals:         1       0       0       0       0       0       0       0       0
      Temps:          0       0       0       0       0       0       0       0       0
      Totals:         1       0       0       0       0       0       0       0       0
Total ram usage:        1 bytes
 Hardware stack levels used:    1
 This function calls:
		Nothing
 This function is called by:
		_main
		_Clear_Graphics
		_Image_Graphics
		_Write_String
		_Fill_Graphics
 This function uses a non-reentrant model


 *************** function _Send_Command *****************
 Defined at:
		line 94 in file "main.c"
 Parameters:    Size  Location     Type
  command         1    wreg     unsigned char 
 Auto vars:     Size  Location     Type
  command         1    0[COMRAM] unsigned char 
 Return value:  Size  Location     Type
		None               void
 Registers used:
		wreg
 Tracked objects:
		On entry : 
		On exit  : 
		Unchanged: 
 Data sizes:     COMRAM   BANK0   BANK1   BANK2   BANK3   BANK4   BANK5   BANK6   BANK7
      Params:         0       0       0       0       0       0       0       0       0
      Locals:         1       0       0       0       0       0       0       0       0
      Temps:          0       0       0       0       0       0       0       0       0
      Totals:         1       0       0       0       0       0       0       0       0
Total ram usage:        1 bytes
 Hardware stack levels used:    1
 This function calls:
		Nothing
 This function is called by:
		_main
		_Initialize
		_Set_GraphicMode
		_Clear_Graphics
		_Image_Graphics
		_Write_String
		_Fill_Graphics
 This function uses a non-reentrant model



MODULE INFORMATION

Module		Function		Class		Link	Load	Size
Alteri.h
		_delay_ms      		CODE           	7A0C	0000	55

Alteri.h estimated size: 55

shared
		_MH            		MEDIUMCONST    	7BFF	0000	1025
		__initialization		CODE           	79E2	0000	33

shared estimated size: 1058

main.c
		_Write_String  		CODE           	79B8	0000	43
		_Clear_Graphics		CODE           	7A42	0000	77
		_Send_Command  		CODE           	7958	0000	29
		_main          		CODE           	7B64	0000	155
		_Image_Graphics		CODE           	7A8E	0000	91
		_Initialize    		CODE           	7AE8	0000	125
		_Send_Data     		CODE           	7992	0000	39
		_Set_GraphicMode		CODE           	7974	0000	31

main.c estimated size: 590

